{
	"contracts/HotelRoom.sol": {
		"HotelRoom": {
			"abi": [
				{
					"inputs": [],
					"stateMutability": "nonpayable",
					"type": "constructor"
				},
				{
					"anonymous": false,
					"inputs": [
						{
							"indexed": false,
							"internalType": "address",
							"name": "_occupant",
							"type": "address"
						},
						{
							"indexed": false,
							"internalType": "uint256",
							"name": "_value",
							"type": "uint256"
						}
					],
					"name": "Occupy",
					"type": "event"
				},
				{
					"inputs": [],
					"name": "book",
					"outputs": [],
					"stateMutability": "payable",
					"type": "function"
				},
				{
					"inputs": [],
					"name": "currentStatus",
					"outputs": [
						{
							"internalType": "enum HotelRoom.Statuses",
							"name": "",
							"type": "uint8"
						}
					],
					"stateMutability": "view",
					"type": "function"
				},
				{
					"inputs": [],
					"name": "owner",
					"outputs": [
						{
							"internalType": "address payable",
							"name": "",
							"type": "address"
						}
					],
					"stateMutability": "view",
					"type": "function"
				}
			],
			"devdoc": {
				"kind": "dev",
				"methods": {},
				"version": 1
			},
			"evm": {
				"assembly": "    /* \"contracts/HotelRoom.sol\":143:1252  contract HotelRoom {... */\n  mstore(0x40, 0x80)\n    /* \"contracts/HotelRoom.sol\":384:508  constructor() {... */\n  callvalue\n  dup1\n  iszero\n  tag_1\n  jumpi\n  0x00\n  dup1\n  revert\ntag_1:\n  pop\n    /* \"contracts/HotelRoom.sol\":424:434  msg.sender */\n  caller\n    /* \"contracts/HotelRoom.sol\":408:413  owner */\n  0x00\n  0x01\n    /* \"contracts/HotelRoom.sol\":408:435  owner = payable(msg.sender) */\n  0x0100\n  exp\n  dup2\n  sload\n  dup2\n  0xffffffffffffffffffffffffffffffffffffffff\n  mul\n  not\n  and\n  swap1\n  dup4\n  0xffffffffffffffffffffffffffffffffffffffff\n  and\n  mul\n  or\n  swap1\n  sstore\n  pop\n    /* \"contracts/HotelRoom.sol\":143:1252  contract HotelRoom {... */\n  dataSize(sub_0)\n  dup1\n  dataOffset(sub_0)\n  0x00\n  codecopy\n  0x00\n  return\nstop\n\nsub_0: assembly {\n        /* \"contracts/HotelRoom.sol\":143:1252  contract HotelRoom {... */\n      mstore(0x40, 0x80)\n      jumpi(tag_1, lt(calldatasize, 0x04))\n      shr(0xe0, calldataload(0x00))\n      dup1\n      0x05a8da72\n      eq\n      tag_2\n      jumpi\n      dup1\n      0x8da5cb5b\n      eq\n      tag_3\n      jumpi\n      dup1\n      0xef8a9235\n      eq\n      tag_4\n      jumpi\n    tag_1:\n      0x00\n      dup1\n      revert\n        /* \"contracts/HotelRoom.sol\":980:1250  function book() public payable onlyWhileVacant costs(2 ether) {... */\n    tag_2:\n      tag_5\n      tag_6\n      jump\t// in\n    tag_5:\n      stop\n        /* \"contracts/HotelRoom.sol\":298:326  address payable public owner */\n    tag_3:\n      callvalue\n      dup1\n      iszero\n      tag_7\n      jumpi\n      0x00\n      dup1\n      revert\n    tag_7:\n      pop\n      tag_8\n      tag_9\n      jump\t// in\n    tag_8:\n      mload(0x40)\n      tag_10\n      swap2\n      swap1\n      tag_11\n      jump\t// in\n    tag_10:\n      mload(0x40)\n      dup1\n      swap2\n      sub\n      swap1\n      return\n        /* \"contracts/HotelRoom.sol\":259:288  Statuses public currentStatus */\n    tag_4:\n      callvalue\n      dup1\n      iszero\n      tag_12\n      jumpi\n      0x00\n      dup1\n      revert\n    tag_12:\n      pop\n      tag_13\n      tag_14\n      jump\t// in\n    tag_13:\n      mload(0x40)\n      tag_15\n      swap2\n      swap1\n      tag_16\n      jump\t// in\n    tag_15:\n      mload(0x40)\n      dup1\n      swap2\n      sub\n      swap1\n      return\n        /* \"contracts/HotelRoom.sol\":980:1250  function book() public payable onlyWhileVacant costs(2 ether) {... */\n    tag_6:\n        /* \"contracts/HotelRoom.sol\":598:613  Statuses.Vacant */\n      0x00\n        /* \"contracts/HotelRoom.sol\":581:613  currentStatus == Statuses.Vacant */\n      0x01\n      dup2\n      gt\n      iszero\n      tag_18\n      jumpi\n      tag_19\n      tag_20\n      jump\t// in\n    tag_19:\n    tag_18:\n        /* \"contracts/HotelRoom.sol\":581:594  currentStatus */\n      0x00\n      dup1\n      sload\n      swap1\n      0x0100\n      exp\n      swap1\n      div\n      0xff\n      and\n        /* \"contracts/HotelRoom.sol\":581:613  currentStatus == Statuses.Vacant */\n      0x01\n      dup2\n      gt\n      iszero\n      tag_21\n      jumpi\n      tag_22\n      tag_20\n      jump\t// in\n    tag_22:\n    tag_21:\n      eq\n        /* \"contracts/HotelRoom.sol\":573:636  require(currentStatus == Statuses.Vacant,\"Currently occupied.\") */\n      tag_23\n      jumpi\n      mload(0x40)\n      0x08c379a000000000000000000000000000000000000000000000000000000000\n      dup2\n      mstore\n      0x04\n      add\n      tag_24\n      swap1\n      tag_25\n      jump\t// in\n    tag_24:\n      mload(0x40)\n      dup1\n      swap2\n      sub\n      swap1\n      revert\n    tag_23:\n        /* \"contracts/HotelRoom.sol\":1033:1040  2 ether */\n      0x1bc16d674ec80000\n        /* \"contracts/HotelRoom.sol\":918:925  _amount */\n      dup1\n        /* \"contracts/HotelRoom.sol\":905:914  msg.value */\n      callvalue\n        /* \"contracts/HotelRoom.sol\":905:925  msg.value >= _amount */\n      lt\n      iszero\n        /* \"contracts/HotelRoom.sol\":897:956  require(msg.value >= _amount, \"Not enough ether provided.\") */\n      tag_27\n      jumpi\n      mload(0x40)\n      0x08c379a000000000000000000000000000000000000000000000000000000000\n      dup2\n      mstore\n      0x04\n      add\n      tag_28\n      swap1\n      tag_29\n      jump\t// in\n    tag_28:\n      mload(0x40)\n      dup1\n      swap2\n      sub\n      swap1\n      revert\n    tag_27:\n        /* \"contracts/HotelRoom.sol\":1074:1091  Statuses.Occupied */\n      0x01\n        /* \"contracts/HotelRoom.sol\":1058:1071  currentStatus */\n      0x00\n      dup1\n        /* \"contracts/HotelRoom.sol\":1058:1091  currentStatus = Statuses.Occupied */\n      0x0100\n      exp\n      dup2\n      sload\n      dup2\n      0xff\n      mul\n      not\n      and\n      swap1\n      dup4\n      0x01\n      dup2\n      gt\n      iszero\n      tag_31\n      jumpi\n      tag_32\n      tag_20\n      jump\t// in\n    tag_32:\n    tag_31:\n      mul\n      or\n      swap1\n      sstore\n      pop\n        /* \"contracts/HotelRoom.sol\":1111:1120  bool sent */\n      0x00\n        /* \"contracts/HotelRoom.sol\":1122:1139  bytes memory data */\n      dup1\n        /* \"contracts/HotelRoom.sol\":1143:1148  owner */\n      0x00\n      0x01\n      swap1\n      sload\n      swap1\n      0x0100\n      exp\n      swap1\n      div\n      0xffffffffffffffffffffffffffffffffffffffff\n      and\n        /* \"contracts/HotelRoom.sol\":1143:1153  owner.call */\n      0xffffffffffffffffffffffffffffffffffffffff\n      and\n        /* \"contracts/HotelRoom.sol\":1161:1170  msg.value */\n      callvalue\n        /* \"contracts/HotelRoom.sol\":1143:1175  owner.call{value: msg.value}(\"\") */\n      mload(0x40)\n      tag_33\n      swap1\n      tag_34\n      jump\t// in\n    tag_33:\n      0x00\n      mload(0x40)\n      dup1\n      dup4\n      sub\n      dup2\n      dup6\n      dup8\n      gas\n      call\n      swap3\n      pop\n      pop\n      pop\n      returndatasize\n      dup1\n      0x00\n      dup2\n      eq\n      tag_37\n      jumpi\n      mload(0x40)\n      swap2\n      pop\n      and(add(returndatasize, 0x3f), not(0x1f))\n      dup3\n      add\n      0x40\n      mstore\n      returndatasize\n      dup3\n      mstore\n      returndatasize\n      0x00\n      0x20\n      dup5\n      add\n      returndatacopy\n      jump(tag_36)\n    tag_37:\n      0x60\n      swap2\n      pop\n    tag_36:\n      pop\n        /* \"contracts/HotelRoom.sol\":1110:1175  (bool sent, bytes memory data) = owner.call{value: msg.value}(\"\") */\n      swap2\n      pop\n      swap2\n      pop\n        /* \"contracts/HotelRoom.sol\":1193:1197  sent */\n      dup2\n        /* \"contracts/HotelRoom.sol\":1185:1198  require(sent) */\n      tag_38\n      jumpi\n      0x00\n      dup1\n      revert\n    tag_38:\n        /* \"contracts/HotelRoom.sol\":1214:1243  Occupy(msg.sender, msg.value) */\n      0xba951166d42eb077151bdecb7cf6027562f04f0143b0c141b1bb0a33eef5d693\n        /* \"contracts/HotelRoom.sol\":1221:1231  msg.sender */\n      caller\n        /* \"contracts/HotelRoom.sol\":1233:1242  msg.value */\n      callvalue\n        /* \"contracts/HotelRoom.sol\":1214:1243  Occupy(msg.sender, msg.value) */\n      mload(0x40)\n      tag_39\n      swap3\n      swap2\n      swap1\n      tag_40\n      jump\t// in\n    tag_39:\n      mload(0x40)\n      dup1\n      swap2\n      sub\n      swap1\n      log1\n        /* \"contracts/HotelRoom.sol\":1042:1250  {... */\n      pop\n      pop\n        /* \"contracts/HotelRoom.sol\":646:647  _ */\n      pop\n        /* \"contracts/HotelRoom.sol\":980:1250  function book() public payable onlyWhileVacant costs(2 ether) {... */\n      jump\t// out\n        /* \"contracts/HotelRoom.sol\":298:326  address payable public owner */\n    tag_9:\n      0x00\n      0x01\n      swap1\n      sload\n      swap1\n      0x0100\n      exp\n      swap1\n      div\n      0xffffffffffffffffffffffffffffffffffffffff\n      and\n      dup2\n      jump\t// out\n        /* \"contracts/HotelRoom.sol\":259:288  Statuses public currentStatus */\n    tag_14:\n      0x00\n      dup1\n      sload\n      swap1\n      0x0100\n      exp\n      swap1\n      div\n      0xff\n      and\n      dup2\n      jump\t// out\n        /* \"#utility.yul\":7:133   */\n    tag_41:\n        /* \"#utility.yul\":44:51   */\n      0x00\n        /* \"#utility.yul\":84:126   */\n      0xffffffffffffffffffffffffffffffffffffffff\n        /* \"#utility.yul\":77:82   */\n      dup3\n        /* \"#utility.yul\":73:127   */\n      and\n        /* \"#utility.yul\":62:127   */\n      swap1\n      pop\n        /* \"#utility.yul\":7:133   */\n      swap2\n      swap1\n      pop\n      jump\t// out\n        /* \"#utility.yul\":139:243   */\n    tag_42:\n        /* \"#utility.yul\":184:191   */\n      0x00\n        /* \"#utility.yul\":213:237   */\n      tag_63\n        /* \"#utility.yul\":231:236   */\n      dup3\n        /* \"#utility.yul\":213:237   */\n      tag_41\n      jump\t// in\n    tag_63:\n        /* \"#utility.yul\":202:237   */\n      swap1\n      pop\n        /* \"#utility.yul\":139:243   */\n      swap2\n      swap1\n      pop\n      jump\t// out\n        /* \"#utility.yul\":249:391   */\n    tag_43:\n        /* \"#utility.yul\":352:384   */\n      tag_65\n        /* \"#utility.yul\":378:383   */\n      dup2\n        /* \"#utility.yul\":352:384   */\n      tag_42\n      jump\t// in\n    tag_65:\n        /* \"#utility.yul\":347:350   */\n      dup3\n        /* \"#utility.yul\":340:385   */\n      mstore\n        /* \"#utility.yul\":249:391   */\n      pop\n      pop\n      jump\t// out\n        /* \"#utility.yul\":397:651   */\n    tag_11:\n        /* \"#utility.yul\":506:510   */\n      0x00\n        /* \"#utility.yul\":544:546   */\n      0x20\n        /* \"#utility.yul\":533:542   */\n      dup3\n        /* \"#utility.yul\":529:547   */\n      add\n        /* \"#utility.yul\":521:547   */\n      swap1\n      pop\n        /* \"#utility.yul\":557:644   */\n      tag_67\n        /* \"#utility.yul\":641:642   */\n      0x00\n        /* \"#utility.yul\":630:639   */\n      dup4\n        /* \"#utility.yul\":626:643   */\n      add\n        /* \"#utility.yul\":617:623   */\n      dup5\n        /* \"#utility.yul\":557:644   */\n      tag_43\n      jump\t// in\n    tag_67:\n        /* \"#utility.yul\":397:651   */\n      swap3\n      swap2\n      pop\n      pop\n      jump\t// out\n        /* \"#utility.yul\":657:837   */\n    tag_20:\n        /* \"#utility.yul\":705:782   */\n      0x4e487b7100000000000000000000000000000000000000000000000000000000\n        /* \"#utility.yul\":702:703   */\n      0x00\n        /* \"#utility.yul\":695:783   */\n      mstore\n        /* \"#utility.yul\":802:806   */\n      0x21\n        /* \"#utility.yul\":799:800   */\n      0x04\n        /* \"#utility.yul\":792:807   */\n      mstore\n        /* \"#utility.yul\":826:830   */\n      0x24\n        /* \"#utility.yul\":823:824   */\n      0x00\n        /* \"#utility.yul\":816:831   */\n      revert\n        /* \"#utility.yul\":843:958   */\n    tag_44:\n        /* \"#utility.yul\":926:927   */\n      0x02\n        /* \"#utility.yul\":919:924   */\n      dup2\n        /* \"#utility.yul\":916:928   */\n      lt\n        /* \"#utility.yul\":906:952   */\n      tag_70\n      jumpi\n        /* \"#utility.yul\":932:950   */\n      tag_71\n      tag_20\n      jump\t// in\n    tag_71:\n        /* \"#utility.yul\":906:952   */\n    tag_70:\n        /* \"#utility.yul\":843:958   */\n      pop\n      jump\t// out\n        /* \"#utility.yul\":964:1095   */\n    tag_45:\n        /* \"#utility.yul\":1011:1018   */\n      0x00\n        /* \"#utility.yul\":1040:1045   */\n      dup2\n        /* \"#utility.yul\":1029:1045   */\n      swap1\n      pop\n        /* \"#utility.yul\":1046:1089   */\n      tag_73\n        /* \"#utility.yul\":1083:1088   */\n      dup3\n        /* \"#utility.yul\":1046:1089   */\n      tag_44\n      jump\t// in\n    tag_73:\n        /* \"#utility.yul\":964:1095   */\n      swap2\n      swap1\n      pop\n      jump\t// out\n        /* \"#utility.yul\":1101:1232   */\n    tag_46:\n        /* \"#utility.yul\":1159:1168   */\n      0x00\n        /* \"#utility.yul\":1192:1226   */\n      tag_75\n        /* \"#utility.yul\":1220:1225   */\n      dup3\n        /* \"#utility.yul\":1192:1226   */\n      tag_45\n      jump\t// in\n    tag_75:\n        /* \"#utility.yul\":1179:1226   */\n      swap1\n      pop\n        /* \"#utility.yul\":1101:1232   */\n      swap2\n      swap1\n      pop\n      jump\t// out\n        /* \"#utility.yul\":1238:1385   */\n    tag_47:\n        /* \"#utility.yul\":1333:1378   */\n      tag_77\n        /* \"#utility.yul\":1372:1377   */\n      dup2\n        /* \"#utility.yul\":1333:1378   */\n      tag_46\n      jump\t// in\n    tag_77:\n        /* \"#utility.yul\":1328:1331   */\n      dup3\n        /* \"#utility.yul\":1321:1379   */\n      mstore\n        /* \"#utility.yul\":1238:1385   */\n      pop\n      pop\n      jump\t// out\n        /* \"#utility.yul\":1391:1629   */\n    tag_16:\n        /* \"#utility.yul\":1492:1496   */\n      0x00\n        /* \"#utility.yul\":1530:1532   */\n      0x20\n        /* \"#utility.yul\":1519:1528   */\n      dup3\n        /* \"#utility.yul\":1515:1533   */\n      add\n        /* \"#utility.yul\":1507:1533   */\n      swap1\n      pop\n        /* \"#utility.yul\":1543:1622   */\n      tag_79\n        /* \"#utility.yul\":1619:1620   */\n      0x00\n        /* \"#utility.yul\":1608:1617   */\n      dup4\n        /* \"#utility.yul\":1604:1621   */\n      add\n        /* \"#utility.yul\":1595:1601   */\n      dup5\n        /* \"#utility.yul\":1543:1622   */\n      tag_47\n      jump\t// in\n    tag_79:\n        /* \"#utility.yul\":1391:1629   */\n      swap3\n      swap2\n      pop\n      pop\n      jump\t// out\n        /* \"#utility.yul\":1635:1804   */\n    tag_48:\n        /* \"#utility.yul\":1719:1730   */\n      0x00\n        /* \"#utility.yul\":1753:1759   */\n      dup3\n        /* \"#utility.yul\":1748:1751   */\n      dup3\n        /* \"#utility.yul\":1741:1760   */\n      mstore\n        /* \"#utility.yul\":1793:1797   */\n      0x20\n        /* \"#utility.yul\":1788:1791   */\n      dup3\n        /* \"#utility.yul\":1784:1798   */\n      add\n        /* \"#utility.yul\":1769:1798   */\n      swap1\n      pop\n        /* \"#utility.yul\":1635:1804   */\n      swap3\n      swap2\n      pop\n      pop\n      jump\t// out\n        /* \"#utility.yul\":1810:1979   */\n    tag_49:\n        /* \"#utility.yul\":1950:1971   */\n      0x43757272656e746c79206f636375706965642e00000000000000000000000000\n        /* \"#utility.yul\":1946:1947   */\n      0x00\n        /* \"#utility.yul\":1938:1944   */\n      dup3\n        /* \"#utility.yul\":1934:1948   */\n      add\n        /* \"#utility.yul\":1927:1972   */\n      mstore\n        /* \"#utility.yul\":1810:1979   */\n      pop\n      jump\t// out\n        /* \"#utility.yul\":1985:2351   */\n    tag_50:\n        /* \"#utility.yul\":2127:2130   */\n      0x00\n        /* \"#utility.yul\":2148:2215   */\n      tag_83\n        /* \"#utility.yul\":2212:2214   */\n      0x13\n        /* \"#utility.yul\":2207:2210   */\n      dup4\n        /* \"#utility.yul\":2148:2215   */\n      tag_48\n      jump\t// in\n    tag_83:\n        /* \"#utility.yul\":2141:2215   */\n      swap2\n      pop\n        /* \"#utility.yul\":2224:2317   */\n      tag_84\n        /* \"#utility.yul\":2313:2316   */\n      dup3\n        /* \"#utility.yul\":2224:2317   */\n      tag_49\n      jump\t// in\n    tag_84:\n        /* \"#utility.yul\":2342:2344   */\n      0x20\n        /* \"#utility.yul\":2337:2340   */\n      dup3\n        /* \"#utility.yul\":2333:2345   */\n      add\n        /* \"#utility.yul\":2326:2345   */\n      swap1\n      pop\n        /* \"#utility.yul\":1985:2351   */\n      swap2\n      swap1\n      pop\n      jump\t// out\n        /* \"#utility.yul\":2357:2776   */\n    tag_25:\n        /* \"#utility.yul\":2523:2527   */\n      0x00\n        /* \"#utility.yul\":2561:2563   */\n      0x20\n        /* \"#utility.yul\":2550:2559   */\n      dup3\n        /* \"#utility.yul\":2546:2564   */\n      add\n        /* \"#utility.yul\":2538:2564   */\n      swap1\n      pop\n        /* \"#utility.yul\":2610:2619   */\n      dup2\n        /* \"#utility.yul\":2604:2608   */\n      dup2\n        /* \"#utility.yul\":2600:2620   */\n      sub\n        /* \"#utility.yul\":2596:2597   */\n      0x00\n        /* \"#utility.yul\":2585:2594   */\n      dup4\n        /* \"#utility.yul\":2581:2598   */\n      add\n        /* \"#utility.yul\":2574:2621   */\n      mstore\n        /* \"#utility.yul\":2638:2769   */\n      tag_86\n        /* \"#utility.yul\":2764:2768   */\n      dup2\n        /* \"#utility.yul\":2638:2769   */\n      tag_50\n      jump\t// in\n    tag_86:\n        /* \"#utility.yul\":2630:2769   */\n      swap1\n      pop\n        /* \"#utility.yul\":2357:2776   */\n      swap2\n      swap1\n      pop\n      jump\t// out\n        /* \"#utility.yul\":2782:2958   */\n    tag_51:\n        /* \"#utility.yul\":2922:2950   */\n      0x4e6f7420656e6f7567682065746865722070726f76696465642e000000000000\n        /* \"#utility.yul\":2918:2919   */\n      0x00\n        /* \"#utility.yul\":2910:2916   */\n      dup3\n        /* \"#utility.yul\":2906:2920   */\n      add\n        /* \"#utility.yul\":2899:2951   */\n      mstore\n        /* \"#utility.yul\":2782:2958   */\n      pop\n      jump\t// out\n        /* \"#utility.yul\":2964:3330   */\n    tag_52:\n        /* \"#utility.yul\":3106:3109   */\n      0x00\n        /* \"#utility.yul\":3127:3194   */\n      tag_89\n        /* \"#utility.yul\":3191:3193   */\n      0x1a\n        /* \"#utility.yul\":3186:3189   */\n      dup4\n        /* \"#utility.yul\":3127:3194   */\n      tag_48\n      jump\t// in\n    tag_89:\n        /* \"#utility.yul\":3120:3194   */\n      swap2\n      pop\n        /* \"#utility.yul\":3203:3296   */\n      tag_90\n        /* \"#utility.yul\":3292:3295   */\n      dup3\n        /* \"#utility.yul\":3203:3296   */\n      tag_51\n      jump\t// in\n    tag_90:\n        /* \"#utility.yul\":3321:3323   */\n      0x20\n        /* \"#utility.yul\":3316:3319   */\n      dup3\n        /* \"#utility.yul\":3312:3324   */\n      add\n        /* \"#utility.yul\":3305:3324   */\n      swap1\n      pop\n        /* \"#utility.yul\":2964:3330   */\n      swap2\n      swap1\n      pop\n      jump\t// out\n        /* \"#utility.yul\":3336:3755   */\n    tag_29:\n        /* \"#utility.yul\":3502:3506   */\n      0x00\n        /* \"#utility.yul\":3540:3542   */\n      0x20\n        /* \"#utility.yul\":3529:3538   */\n      dup3\n        /* \"#utility.yul\":3525:3543   */\n      add\n        /* \"#utility.yul\":3517:3543   */\n      swap1\n      pop\n        /* \"#utility.yul\":3589:3598   */\n      dup2\n        /* \"#utility.yul\":3583:3587   */\n      dup2\n        /* \"#utility.yul\":3579:3599   */\n      sub\n        /* \"#utility.yul\":3575:3576   */\n      0x00\n        /* \"#utility.yul\":3564:3573   */\n      dup4\n        /* \"#utility.yul\":3560:3577   */\n      add\n        /* \"#utility.yul\":3553:3600   */\n      mstore\n        /* \"#utility.yul\":3617:3748   */\n      tag_92\n        /* \"#utility.yul\":3743:3747   */\n      dup2\n        /* \"#utility.yul\":3617:3748   */\n      tag_52\n      jump\t// in\n    tag_92:\n        /* \"#utility.yul\":3609:3748   */\n      swap1\n      pop\n        /* \"#utility.yul\":3336:3755   */\n      swap2\n      swap1\n      pop\n      jump\t// out\n        /* \"#utility.yul\":3761:3908   */\n    tag_53:\n        /* \"#utility.yul\":3862:3873   */\n      0x00\n        /* \"#utility.yul\":3899:3902   */\n      dup2\n        /* \"#utility.yul\":3884:3902   */\n      swap1\n      pop\n        /* \"#utility.yul\":3761:3908   */\n      swap3\n      swap2\n      pop\n      pop\n      jump\t// out\n        /* \"#utility.yul\":3914:4028   */\n    tag_54:\n      pop\n      jump\t// out\n        /* \"#utility.yul\":4034:4432   */\n    tag_55:\n        /* \"#utility.yul\":4193:4196   */\n      0x00\n        /* \"#utility.yul\":4214:4297   */\n      tag_96\n        /* \"#utility.yul\":4295:4296   */\n      0x00\n        /* \"#utility.yul\":4290:4293   */\n      dup4\n        /* \"#utility.yul\":4214:4297   */\n      tag_53\n      jump\t// in\n    tag_96:\n        /* \"#utility.yul\":4207:4297   */\n      swap2\n      pop\n        /* \"#utility.yul\":4306:4399   */\n      tag_97\n        /* \"#utility.yul\":4395:4398   */\n      dup3\n        /* \"#utility.yul\":4306:4399   */\n      tag_54\n      jump\t// in\n    tag_97:\n        /* \"#utility.yul\":4424:4425   */\n      0x00\n        /* \"#utility.yul\":4419:4422   */\n      dup3\n        /* \"#utility.yul\":4415:4426   */\n      add\n        /* \"#utility.yul\":4408:4426   */\n      swap1\n      pop\n        /* \"#utility.yul\":4034:4432   */\n      swap2\n      swap1\n      pop\n      jump\t// out\n        /* \"#utility.yul\":4438:4817   */\n    tag_34:\n        /* \"#utility.yul\":4622:4625   */\n      0x00\n        /* \"#utility.yul\":4644:4791   */\n      tag_99\n        /* \"#utility.yul\":4787:4790   */\n      dup3\n        /* \"#utility.yul\":4644:4791   */\n      tag_55\n      jump\t// in\n    tag_99:\n        /* \"#utility.yul\":4637:4791   */\n      swap2\n      pop\n        /* \"#utility.yul\":4808:4811   */\n      dup2\n        /* \"#utility.yul\":4801:4811   */\n      swap1\n      pop\n        /* \"#utility.yul\":4438:4817   */\n      swap2\n      swap1\n      pop\n      jump\t// out\n        /* \"#utility.yul\":4823:4919   */\n    tag_56:\n        /* \"#utility.yul\":4860:4867   */\n      0x00\n        /* \"#utility.yul\":4889:4913   */\n      tag_101\n        /* \"#utility.yul\":4907:4912   */\n      dup3\n        /* \"#utility.yul\":4889:4913   */\n      tag_41\n      jump\t// in\n    tag_101:\n        /* \"#utility.yul\":4878:4913   */\n      swap1\n      pop\n        /* \"#utility.yul\":4823:4919   */\n      swap2\n      swap1\n      pop\n      jump\t// out\n        /* \"#utility.yul\":4925:5043   */\n    tag_57:\n        /* \"#utility.yul\":5012:5036   */\n      tag_103\n        /* \"#utility.yul\":5030:5035   */\n      dup2\n        /* \"#utility.yul\":5012:5036   */\n      tag_56\n      jump\t// in\n    tag_103:\n        /* \"#utility.yul\":5007:5010   */\n      dup3\n        /* \"#utility.yul\":5000:5037   */\n      mstore\n        /* \"#utility.yul\":4925:5043   */\n      pop\n      pop\n      jump\t// out\n        /* \"#utility.yul\":5049:5126   */\n    tag_58:\n        /* \"#utility.yul\":5086:5093   */\n      0x00\n        /* \"#utility.yul\":5115:5120   */\n      dup2\n        /* \"#utility.yul\":5104:5120   */\n      swap1\n      pop\n        /* \"#utility.yul\":5049:5126   */\n      swap2\n      swap1\n      pop\n      jump\t// out\n        /* \"#utility.yul\":5132:5250   */\n    tag_59:\n        /* \"#utility.yul\":5219:5243   */\n      tag_106\n        /* \"#utility.yul\":5237:5242   */\n      dup2\n        /* \"#utility.yul\":5219:5243   */\n      tag_58\n      jump\t// in\n    tag_106:\n        /* \"#utility.yul\":5214:5217   */\n      dup3\n        /* \"#utility.yul\":5207:5244   */\n      mstore\n        /* \"#utility.yul\":5132:5250   */\n      pop\n      pop\n      jump\t// out\n        /* \"#utility.yul\":5256:5588   */\n    tag_40:\n        /* \"#utility.yul\":5377:5381   */\n      0x00\n        /* \"#utility.yul\":5415:5417   */\n      0x40\n        /* \"#utility.yul\":5404:5413   */\n      dup3\n        /* \"#utility.yul\":5400:5418   */\n      add\n        /* \"#utility.yul\":5392:5418   */\n      swap1\n      pop\n        /* \"#utility.yul\":5428:5499   */\n      tag_108\n        /* \"#utility.yul\":5496:5497   */\n      0x00\n        /* \"#utility.yul\":5485:5494   */\n      dup4\n        /* \"#utility.yul\":5481:5498   */\n      add\n        /* \"#utility.yul\":5472:5478   */\n      dup6\n        /* \"#utility.yul\":5428:5499   */\n      tag_57\n      jump\t// in\n    tag_108:\n        /* \"#utility.yul\":5509:5581   */\n      tag_109\n        /* \"#utility.yul\":5577:5579   */\n      0x20\n        /* \"#utility.yul\":5566:5575   */\n      dup4\n        /* \"#utility.yul\":5562:5580   */\n      add\n        /* \"#utility.yul\":5553:5559   */\n      dup5\n        /* \"#utility.yul\":5509:5581   */\n      tag_59\n      jump\t// in\n    tag_109:\n        /* \"#utility.yul\":5256:5588   */\n      swap4\n      swap3\n      pop\n      pop\n      pop\n      jump\t// out\n\n    auxdata: 0xa2646970667358221220755ce92299f54eee667892674786001b523a2ea8f28829c23a2ad09a8b84dc6664736f6c634300081a0033\n}\n",
				"bytecode": {
					"linkReferences": {},
					"object": "6080604052348015600e575f80fd5b50335f60016101000a81548173ffffffffffffffffffffffffffffffffffffffff021916908373ffffffffffffffffffffffffffffffffffffffff16021790555061051d8061005c5f395ff3fe608060405260043610610033575f3560e01c806305a8da72146100375780638da5cb5b14610041578063ef8a92351461006b575b5f80fd5b61003f610095565b005b34801561004c575f80fd5b5061005561024e565b60405161006291906102c2565b60405180910390f35b348015610076575f80fd5b5061007f610273565b60405161008c919061034e565b60405180910390f35b5f60018111156100a8576100a76102db565b5b5f8054906101000a900460ff1660018111156100c7576100c66102db565b5b14610107576040517f08c379a00000000000000000000000000000000000000000000000000000000081526004016100fe906103c1565b60405180910390fd5b671bc16d674ec8000080341015610153576040517f08c379a000000000000000000000000000000000000000000000000000000000815260040161014a90610429565b60405180910390fd5b60015f806101000a81548160ff02191690836001811115610177576101766102db565b5b02179055505f805f60019054906101000a900473ffffffffffffffffffffffffffffffffffffffff1673ffffffffffffffffffffffffffffffffffffffff16346040516101c390610474565b5f6040518083038185875af1925050503d805f81146101fd576040519150601f19603f3d011682016040523d82523d5f602084013e610202565b606091505b509150915081610210575f80fd5b7fba951166d42eb077151bdecb7cf6027562f04f0143b0c141b1bb0a33eef5d69333346040516102419291906104c0565b60405180910390a1505050565b5f60019054906101000a900473ffffffffffffffffffffffffffffffffffffffff1681565b5f8054906101000a900460ff1681565b5f73ffffffffffffffffffffffffffffffffffffffff82169050919050565b5f6102ac82610283565b9050919050565b6102bc816102a2565b82525050565b5f6020820190506102d55f8301846102b3565b92915050565b7f4e487b71000000000000000000000000000000000000000000000000000000005f52602160045260245ffd5b60028110610319576103186102db565b5b50565b5f81905061032982610308565b919050565b5f6103388261031c565b9050919050565b6103488161032e565b82525050565b5f6020820190506103615f83018461033f565b92915050565b5f82825260208201905092915050565b7f43757272656e746c79206f636375706965642e000000000000000000000000005f82015250565b5f6103ab601383610367565b91506103b682610377565b602082019050919050565b5f6020820190508181035f8301526103d88161039f565b9050919050565b7f4e6f7420656e6f7567682065746865722070726f76696465642e0000000000005f82015250565b5f610413601a83610367565b915061041e826103df565b602082019050919050565b5f6020820190508181035f83015261044081610407565b9050919050565b5f81905092915050565b50565b5f61045f5f83610447565b915061046a82610451565b5f82019050919050565b5f61047e82610454565b9150819050919050565b5f61049282610283565b9050919050565b6104a281610488565b82525050565b5f819050919050565b6104ba816104a8565b82525050565b5f6040820190506104d35f830185610499565b6104e060208301846104b1565b939250505056fea2646970667358221220755ce92299f54eee667892674786001b523a2ea8f28829c23a2ad09a8b84dc6664736f6c634300081a0033",
					"opcodes": "PUSH1 0x80 PUSH1 0x40 MSTORE CALLVALUE DUP1 ISZERO PUSH1 0xE JUMPI PUSH0 DUP1 REVERT JUMPDEST POP CALLER PUSH0 PUSH1 0x1 PUSH2 0x100 EXP DUP2 SLOAD DUP2 PUSH20 0xFFFFFFFFFFFFFFFFFFFFFFFFFFFFFFFFFFFFFFFF MUL NOT AND SWAP1 DUP4 PUSH20 0xFFFFFFFFFFFFFFFFFFFFFFFFFFFFFFFFFFFFFFFF AND MUL OR SWAP1 SSTORE POP PUSH2 0x51D DUP1 PUSH2 0x5C PUSH0 CODECOPY PUSH0 RETURN INVALID PUSH1 0x80 PUSH1 0x40 MSTORE PUSH1 0x4 CALLDATASIZE LT PUSH2 0x33 JUMPI PUSH0 CALLDATALOAD PUSH1 0xE0 SHR DUP1 PUSH4 0x5A8DA72 EQ PUSH2 0x37 JUMPI DUP1 PUSH4 0x8DA5CB5B EQ PUSH2 0x41 JUMPI DUP1 PUSH4 0xEF8A9235 EQ PUSH2 0x6B JUMPI JUMPDEST PUSH0 DUP1 REVERT JUMPDEST PUSH2 0x3F PUSH2 0x95 JUMP JUMPDEST STOP JUMPDEST CALLVALUE DUP1 ISZERO PUSH2 0x4C JUMPI PUSH0 DUP1 REVERT JUMPDEST POP PUSH2 0x55 PUSH2 0x24E JUMP JUMPDEST PUSH1 0x40 MLOAD PUSH2 0x62 SWAP2 SWAP1 PUSH2 0x2C2 JUMP JUMPDEST PUSH1 0x40 MLOAD DUP1 SWAP2 SUB SWAP1 RETURN JUMPDEST CALLVALUE DUP1 ISZERO PUSH2 0x76 JUMPI PUSH0 DUP1 REVERT JUMPDEST POP PUSH2 0x7F PUSH2 0x273 JUMP JUMPDEST PUSH1 0x40 MLOAD PUSH2 0x8C SWAP2 SWAP1 PUSH2 0x34E JUMP JUMPDEST PUSH1 0x40 MLOAD DUP1 SWAP2 SUB SWAP1 RETURN JUMPDEST PUSH0 PUSH1 0x1 DUP2 GT ISZERO PUSH2 0xA8 JUMPI PUSH2 0xA7 PUSH2 0x2DB JUMP JUMPDEST JUMPDEST PUSH0 DUP1 SLOAD SWAP1 PUSH2 0x100 EXP SWAP1 DIV PUSH1 0xFF AND PUSH1 0x1 DUP2 GT ISZERO PUSH2 0xC7 JUMPI PUSH2 0xC6 PUSH2 0x2DB JUMP JUMPDEST JUMPDEST EQ PUSH2 0x107 JUMPI PUSH1 0x40 MLOAD PUSH32 0x8C379A000000000000000000000000000000000000000000000000000000000 DUP2 MSTORE PUSH1 0x4 ADD PUSH2 0xFE SWAP1 PUSH2 0x3C1 JUMP JUMPDEST PUSH1 0x40 MLOAD DUP1 SWAP2 SUB SWAP1 REVERT JUMPDEST PUSH8 0x1BC16D674EC80000 DUP1 CALLVALUE LT ISZERO PUSH2 0x153 JUMPI PUSH1 0x40 MLOAD PUSH32 0x8C379A000000000000000000000000000000000000000000000000000000000 DUP2 MSTORE PUSH1 0x4 ADD PUSH2 0x14A SWAP1 PUSH2 0x429 JUMP JUMPDEST PUSH1 0x40 MLOAD DUP1 SWAP2 SUB SWAP1 REVERT JUMPDEST PUSH1 0x1 PUSH0 DUP1 PUSH2 0x100 EXP DUP2 SLOAD DUP2 PUSH1 0xFF MUL NOT AND SWAP1 DUP4 PUSH1 0x1 DUP2 GT ISZERO PUSH2 0x177 JUMPI PUSH2 0x176 PUSH2 0x2DB JUMP JUMPDEST JUMPDEST MUL OR SWAP1 SSTORE POP PUSH0 DUP1 PUSH0 PUSH1 0x1 SWAP1 SLOAD SWAP1 PUSH2 0x100 EXP SWAP1 DIV PUSH20 0xFFFFFFFFFFFFFFFFFFFFFFFFFFFFFFFFFFFFFFFF AND PUSH20 0xFFFFFFFFFFFFFFFFFFFFFFFFFFFFFFFFFFFFFFFF AND CALLVALUE PUSH1 0x40 MLOAD PUSH2 0x1C3 SWAP1 PUSH2 0x474 JUMP JUMPDEST PUSH0 PUSH1 0x40 MLOAD DUP1 DUP4 SUB DUP2 DUP6 DUP8 GAS CALL SWAP3 POP POP POP RETURNDATASIZE DUP1 PUSH0 DUP2 EQ PUSH2 0x1FD JUMPI PUSH1 0x40 MLOAD SWAP2 POP PUSH1 0x1F NOT PUSH1 0x3F RETURNDATASIZE ADD AND DUP3 ADD PUSH1 0x40 MSTORE RETURNDATASIZE DUP3 MSTORE RETURNDATASIZE PUSH0 PUSH1 0x20 DUP5 ADD RETURNDATACOPY PUSH2 0x202 JUMP JUMPDEST PUSH1 0x60 SWAP2 POP JUMPDEST POP SWAP2 POP SWAP2 POP DUP2 PUSH2 0x210 JUMPI PUSH0 DUP1 REVERT JUMPDEST PUSH32 0xBA951166D42EB077151BDECB7CF6027562F04F0143B0C141B1BB0A33EEF5D693 CALLER CALLVALUE PUSH1 0x40 MLOAD PUSH2 0x241 SWAP3 SWAP2 SWAP1 PUSH2 0x4C0 JUMP JUMPDEST PUSH1 0x40 MLOAD DUP1 SWAP2 SUB SWAP1 LOG1 POP POP POP JUMP JUMPDEST PUSH0 PUSH1 0x1 SWAP1 SLOAD SWAP1 PUSH2 0x100 EXP SWAP1 DIV PUSH20 0xFFFFFFFFFFFFFFFFFFFFFFFFFFFFFFFFFFFFFFFF AND DUP2 JUMP JUMPDEST PUSH0 DUP1 SLOAD SWAP1 PUSH2 0x100 EXP SWAP1 DIV PUSH1 0xFF AND DUP2 JUMP JUMPDEST PUSH0 PUSH20 0xFFFFFFFFFFFFFFFFFFFFFFFFFFFFFFFFFFFFFFFF DUP3 AND SWAP1 POP SWAP2 SWAP1 POP JUMP JUMPDEST PUSH0 PUSH2 0x2AC DUP3 PUSH2 0x283 JUMP JUMPDEST SWAP1 POP SWAP2 SWAP1 POP JUMP JUMPDEST PUSH2 0x2BC DUP2 PUSH2 0x2A2 JUMP JUMPDEST DUP3 MSTORE POP POP JUMP JUMPDEST PUSH0 PUSH1 0x20 DUP3 ADD SWAP1 POP PUSH2 0x2D5 PUSH0 DUP4 ADD DUP5 PUSH2 0x2B3 JUMP JUMPDEST SWAP3 SWAP2 POP POP JUMP JUMPDEST PUSH32 0x4E487B7100000000000000000000000000000000000000000000000000000000 PUSH0 MSTORE PUSH1 0x21 PUSH1 0x4 MSTORE PUSH1 0x24 PUSH0 REVERT JUMPDEST PUSH1 0x2 DUP2 LT PUSH2 0x319 JUMPI PUSH2 0x318 PUSH2 0x2DB JUMP JUMPDEST JUMPDEST POP JUMP JUMPDEST PUSH0 DUP2 SWAP1 POP PUSH2 0x329 DUP3 PUSH2 0x308 JUMP JUMPDEST SWAP2 SWAP1 POP JUMP JUMPDEST PUSH0 PUSH2 0x338 DUP3 PUSH2 0x31C JUMP JUMPDEST SWAP1 POP SWAP2 SWAP1 POP JUMP JUMPDEST PUSH2 0x348 DUP2 PUSH2 0x32E JUMP JUMPDEST DUP3 MSTORE POP POP JUMP JUMPDEST PUSH0 PUSH1 0x20 DUP3 ADD SWAP1 POP PUSH2 0x361 PUSH0 DUP4 ADD DUP5 PUSH2 0x33F JUMP JUMPDEST SWAP3 SWAP2 POP POP JUMP JUMPDEST PUSH0 DUP3 DUP3 MSTORE PUSH1 0x20 DUP3 ADD SWAP1 POP SWAP3 SWAP2 POP POP JUMP JUMPDEST PUSH32 0x43757272656E746C79206F636375706965642E00000000000000000000000000 PUSH0 DUP3 ADD MSTORE POP JUMP JUMPDEST PUSH0 PUSH2 0x3AB PUSH1 0x13 DUP4 PUSH2 0x367 JUMP JUMPDEST SWAP2 POP PUSH2 0x3B6 DUP3 PUSH2 0x377 JUMP JUMPDEST PUSH1 0x20 DUP3 ADD SWAP1 POP SWAP2 SWAP1 POP JUMP JUMPDEST PUSH0 PUSH1 0x20 DUP3 ADD SWAP1 POP DUP2 DUP2 SUB PUSH0 DUP4 ADD MSTORE PUSH2 0x3D8 DUP2 PUSH2 0x39F JUMP JUMPDEST SWAP1 POP SWAP2 SWAP1 POP JUMP JUMPDEST PUSH32 0x4E6F7420656E6F7567682065746865722070726F76696465642E000000000000 PUSH0 DUP3 ADD MSTORE POP JUMP JUMPDEST PUSH0 PUSH2 0x413 PUSH1 0x1A DUP4 PUSH2 0x367 JUMP JUMPDEST SWAP2 POP PUSH2 0x41E DUP3 PUSH2 0x3DF JUMP JUMPDEST PUSH1 0x20 DUP3 ADD SWAP1 POP SWAP2 SWAP1 POP JUMP JUMPDEST PUSH0 PUSH1 0x20 DUP3 ADD SWAP1 POP DUP2 DUP2 SUB PUSH0 DUP4 ADD MSTORE PUSH2 0x440 DUP2 PUSH2 0x407 JUMP JUMPDEST SWAP1 POP SWAP2 SWAP1 POP JUMP JUMPDEST PUSH0 DUP2 SWAP1 POP SWAP3 SWAP2 POP POP JUMP JUMPDEST POP JUMP JUMPDEST PUSH0 PUSH2 0x45F PUSH0 DUP4 PUSH2 0x447 JUMP JUMPDEST SWAP2 POP PUSH2 0x46A DUP3 PUSH2 0x451 JUMP JUMPDEST PUSH0 DUP3 ADD SWAP1 POP SWAP2 SWAP1 POP JUMP JUMPDEST PUSH0 PUSH2 0x47E DUP3 PUSH2 0x454 JUMP JUMPDEST SWAP2 POP DUP2 SWAP1 POP SWAP2 SWAP1 POP JUMP JUMPDEST PUSH0 PUSH2 0x492 DUP3 PUSH2 0x283 JUMP JUMPDEST SWAP1 POP SWAP2 SWAP1 POP JUMP JUMPDEST PUSH2 0x4A2 DUP2 PUSH2 0x488 JUMP JUMPDEST DUP3 MSTORE POP POP JUMP JUMPDEST PUSH0 DUP2 SWAP1 POP SWAP2 SWAP1 POP JUMP JUMPDEST PUSH2 0x4BA DUP2 PUSH2 0x4A8 JUMP JUMPDEST DUP3 MSTORE POP POP JUMP JUMPDEST PUSH0 PUSH1 0x40 DUP3 ADD SWAP1 POP PUSH2 0x4D3 PUSH0 DUP4 ADD DUP6 PUSH2 0x499 JUMP JUMPDEST PUSH2 0x4E0 PUSH1 0x20 DUP4 ADD DUP5 PUSH2 0x4B1 JUMP JUMPDEST SWAP4 SWAP3 POP POP POP JUMP INVALID LOG2 PUSH5 0x6970667358 0x22 SLT KECCAK256 PUSH22 0x5CE92299F54EEE667892674786001B523A2EA8F28829 0xC2 GASPRICE 0x2A 0xD0 SWAP11 DUP12 DUP5 0xDC PUSH7 0x64736F6C634300 ADDMOD BYTE STOP CALLER "
				},
				"gasEstimates": {
					"creation": {
						"codeDepositCost": "261800",
						"executionCost": "24613",
						"totalCost": "286413"
					},
					"external": {
						"book()": "infinite",
						"currentStatus()": "2573",
						"owner()": "2558"
					}
				},
				"methodIdentifiers": {
					"book()": "05a8da72",
					"currentStatus()": "ef8a9235",
					"owner()": "8da5cb5b"
				}
			},
			"storageLayout": {
				"storage": [
					{
						"astId": 7,
						"contract": "contracts/HotelRoom.sol:HotelRoom",
						"label": "currentStatus",
						"offset": 0,
						"slot": "0",
						"type": "t_enum(Statuses)4"
					},
					{
						"astId": 9,
						"contract": "contracts/HotelRoom.sol:HotelRoom",
						"label": "owner",
						"offset": 1,
						"slot": "0",
						"type": "t_address_payable"
					}
				],
				"types": {
					"t_address_payable": {
						"encoding": "inplace",
						"label": "address payable",
						"numberOfBytes": "20"
					},
					"t_enum(Statuses)4": {
						"encoding": "inplace",
						"label": "enum HotelRoom.Statuses",
						"numberOfBytes": "1"
					}
				}
			},
			"userdoc": {
				"kind": "user",
				"methods": {},
				"version": 1
			}
		}
	}
}